{
  "_format": "hh-sol-artifact-1",
  "contractName": "NGLPaperPayment",
  "sourceName": "contracts/NGLPaperPayment.sol",
  "abi": [
    {
      "inputs": [
        {
          "internalType": "address",
          "name": "_cUSD",
          "type": "address"
        },
        {
          "internalType": "uint256",
          "name": "_pricePerPageCELO",
          "type": "uint256"
        },
        {
          "internalType": "uint256",
          "name": "_pricePerPageCUSD",
          "type": "uint256"
        }
      ],
      "stateMutability": "nonpayable",
      "type": "constructor"
    },
    {
      "anonymous": false,
      "inputs": [
        {
          "indexed": true,
          "internalType": "address",
          "name": "previous",
          "type": "address"
        },
        {
          "indexed": true,
          "internalType": "address",
          "name": "next",
          "type": "address"
        }
      ],
      "name": "OwnershipTransferred",
      "type": "event"
    },
    {
      "anonymous": false,
      "inputs": [
        {
          "indexed": true,
          "internalType": "address",
          "name": "payer",
          "type": "address"
        },
        {
          "indexed": false,
          "internalType": "uint256",
          "name": "pages",
          "type": "uint256"
        },
        {
          "indexed": false,
          "internalType": "string",
          "name": "token",
          "type": "string"
        },
        {
          "indexed": false,
          "internalType": "uint256",
          "name": "amount",
          "type": "uint256"
        }
      ],
      "name": "PaperExplained",
      "type": "event"
    },
    {
      "anonymous": false,
      "inputs": [
        {
          "indexed": false,
          "internalType": "uint256",
          "name": "newCELO",
          "type": "uint256"
        },
        {
          "indexed": false,
          "internalType": "uint256",
          "name": "newCUSD",
          "type": "uint256"
        }
      ],
      "name": "PricesUpdated",
      "type": "event"
    },
    {
      "anonymous": false,
      "inputs": [
        {
          "indexed": true,
          "internalType": "address",
          "name": "to",
          "type": "address"
        },
        {
          "indexed": false,
          "internalType": "uint256",
          "name": "amount",
          "type": "uint256"
        },
        {
          "indexed": false,
          "internalType": "string",
          "name": "token",
          "type": "string"
        }
      ],
      "name": "Withdrawal",
      "type": "event"
    },
    {
      "inputs": [],
      "name": "cUSD",
      "outputs": [
        {
          "internalType": "contract IERC20",
          "name": "",
          "type": "address"
        }
      ],
      "stateMutability": "view",
      "type": "function"
    },
    {
      "inputs": [
        {
          "internalType": "uint256",
          "name": "pages",
          "type": "uint256"
        }
      ],
      "name": "explainWithCELO",
      "outputs": [],
      "stateMutability": "payable",
      "type": "function"
    },
    {
      "inputs": [
        {
          "internalType": "uint256",
          "name": "pages",
          "type": "uint256"
        }
      ],
      "name": "explainWithCUSD",
      "outputs": [],
      "stateMutability": "nonpayable",
      "type": "function"
    },
    {
      "inputs": [],
      "name": "getPrices",
      "outputs": [
        {
          "internalType": "uint256",
          "name": "celo",
          "type": "uint256"
        },
        {
          "internalType": "uint256",
          "name": "cusd",
          "type": "uint256"
        }
      ],
      "stateMutability": "view",
      "type": "function"
    },
    {
      "inputs": [],
      "name": "owner",
      "outputs": [
        {
          "internalType": "address",
          "name": "",
          "type": "address"
        }
      ],
      "stateMutability": "view",
      "type": "function"
    },
    {
      "inputs": [],
      "name": "pricePerPageCELO",
      "outputs": [
        {
          "internalType": "uint256",
          "name": "",
          "type": "uint256"
        }
      ],
      "stateMutability": "view",
      "type": "function"
    },
    {
      "inputs": [],
      "name": "pricePerPageCUSD",
      "outputs": [
        {
          "internalType": "uint256",
          "name": "",
          "type": "uint256"
        }
      ],
      "stateMutability": "view",
      "type": "function"
    },
    {
      "inputs": [
        {
          "internalType": "uint256",
          "name": "_celo",
          "type": "uint256"
        },
        {
          "internalType": "uint256",
          "name": "_cusd",
          "type": "uint256"
        }
      ],
      "name": "setPrices",
      "outputs": [],
      "stateMutability": "nonpayable",
      "type": "function"
    },
    {
      "inputs": [],
      "name": "totalExplains",
      "outputs": [
        {
          "internalType": "uint256",
          "name": "",
          "type": "uint256"
        }
      ],
      "stateMutability": "view",
      "type": "function"
    },
    {
      "inputs": [
        {
          "internalType": "address",
          "name": "newOwner",
          "type": "address"
        }
      ],
      "name": "transferOwnership",
      "outputs": [],
      "stateMutability": "nonpayable",
      "type": "function"
    },
    {
      "inputs": [],
      "name": "withdraw",
      "outputs": [],
      "stateMutability": "nonpayable",
      "type": "function"
    },
    {
      "inputs": [],
      "name": "withdrawCUSD",
      "outputs": [],
      "stateMutability": "nonpayable",
      "type": "function"
    },
    {
      "stateMutability": "payable",
      "type": "receive"
    }
  ],
  "bytecode": "0x608060405234801561001057600080fd5b50604051610d57380380610d5783398101604081905261002f916100c3565b6001600160a01b0383166100895760405162461bcd60e51b815260206004820152601b60248201527f4e474c50617065723a207a65726f206355534420616464726573730000000000604482015260640160405180910390fd5b60008054336001600160a01b031991821617909155600180549091166001600160a01b039490941693909317909255600255600355610106565b6000806000606084860312156100d857600080fd5b83516001600160a01b03811681146100ef57600080fd5b602085015160409095015190969495509392505050565b610c42806101156000396000f3fe6080604052600436106100ab5760003560e01c8063731ea6cb11610064578063731ea6cb146101855780638271c6b61461019a5780638da5cb5b146101b0578063bd9a548b146101d0578063f2fde38b146101f8578063fb61d4ab1461021857600080fd5b806305fefda7146100b75780631fccf672146100d95780633ccfd60b1461011657806341295b5a1461012b578063526edde91461014f5780635ae318ee1461016f57600080fd5b366100b257005b600080fd5b3480156100c357600080fd5b506100d76100d2366004610a23565b61022b565b005b3480156100e557600080fd5b506001546100f9906001600160a01b031681565b6040516001600160a01b0390911681526020015b60405180910390f35b34801561012257600080fd5b506100d76102a5565b34801561013757600080fd5b5061014160025481565b60405190815260200161010d565b34801561015b57600080fd5b506100d761016a366004610a45565b61040b565b34801561017b57600080fd5b5061014160035481565b34801561019157600080fd5b506100d761059a565b3480156101a657600080fd5b5061014160045481565b3480156101bc57600080fd5b506000546100f9906001600160a01b031681565b3480156101dc57600080fd5b506002546003546040805192835260208301919091520161010d565b34801561020457600080fd5b506100d7610213366004610a5e565b610792565b6100d7610226366004610a45565b610866565b6000546001600160a01b0316331461025e5760405162461bcd60e51b815260040161025590610a8e565b60405180910390fd5b6002829055600381905560408051838152602081018390527f6546f60f34df611fa42503098acc39d5ab88bc73febe64b3cc14e5a92e3a66a7910160405180910390a15050565b6000546001600160a01b031633146102cf5760405162461bcd60e51b815260040161025590610a8e565b478061031d5760405162461bcd60e51b815260206004820152601960248201527f4e474c50617065723a206e6f2043454c4f2062616c616e6365000000000000006044820152606401610255565b600080546040516001600160a01b039091169083908381818185875af1925050503d806000811461036a576040519150601f19603f3d011682016040523d82523d6000602084013e61036f565b606091505b50509050806103c05760405162461bcd60e51b815260206004820152601e60248201527f4e474c50617065723a2043454c4f207769746864726177206661696c656400006044820152606401610255565b6000546040516001600160a01b03909116907fecb269d89bfded20a4f5e6e51b509df1e3309a995946c9be8d6a8e2ddfa6b89c906103ff908590610abb565b60405180910390a25050565b6000811161045b5760405162461bcd60e51b815260206004820152601b60248201527f4e474c50617065723a207061676573206d757374206265203e203000000000006044820152606401610255565b60008160035461046b9190610afb565b6001546040516323b872dd60e01b8152336004820152306024820152604481018390529192506001600160a01b0316906323b872dd906064016020604051808303816000875af11580156104c3573d6000803e3d6000fd5b505050506040513d601f19601f820116820180604052508101906104e79190610b18565b61054a5760405162461bcd60e51b815260206004820152602e60248201527f4e474c50617065723a2063555344207472616e73666572206661696c6564202d60448201526d08185c1c1c9bdd9948199a5c9cdd60921b6064820152608401610255565b6004805490600061055a83610b3a565b9190505550336001600160a01b03167f2effa67f73049ce02614e3ff2638d73106bb38048b7ed44ca9b237a27cbcf86083836040516103ff929190610b53565b6000546001600160a01b031633146105c45760405162461bcd60e51b815260040161025590610a8e565b6001546040516370a0823160e01b81523060048201526000916001600160a01b0316906370a0823190602401602060405180830381865afa15801561060d573d6000803e3d6000fd5b505050506040513d601f19601f820116820180604052508101906106319190610b8c565b9050600081116106835760405162461bcd60e51b815260206004820152601960248201527f4e474c50617065723a206e6f20635553442062616c616e6365000000000000006044820152606401610255565b60015460005460405163a9059cbb60e01b81526001600160a01b0391821660048201526024810184905291169063a9059cbb906044016020604051808303816000875af11580156106d8573d6000803e3d6000fd5b505050506040513d601f19601f820116820180604052508101906106fc9190610b18565b6107485760405162461bcd60e51b815260206004820152601e60248201527f4e474c50617065723a2063555344207769746864726177206661696c656400006044820152606401610255565b6000546040516001600160a01b03909116907fecb269d89bfded20a4f5e6e51b509df1e3309a995946c9be8d6a8e2ddfa6b89c90610787908490610ba5565b60405180910390a250565b6000546001600160a01b031633146107bc5760405162461bcd60e51b815260040161025590610a8e565b6001600160a01b03811661080b5760405162461bcd60e51b81526020600482015260166024820152754e474c50617065723a207a65726f206164647265737360501b6044820152606401610255565b600080546040516001600160a01b03808516939216917f8be0079c531659141344cd1fd0a4f28419497f9722a3daafe3b4186f6b6457e091a3600080546001600160a01b0319166001600160a01b0392909216919091179055565b600081116108b65760405162461bcd60e51b815260206004820152601b60248201527f4e474c50617065723a207061676573206d757374206265203e203000000000006044820152606401610255565b6000816002546108c69190610afb565b9050803410156109185760405162461bcd60e51b815260206004820152601b60248201527f4e474c50617065723a20696e73756666696369656e742043454c4f00000000006044820152606401610255565b60006109248234610bcf565b905080156109c657604051600090339083908381818185875af1925050503d806000811461096e576040519150601f19603f3d011682016040523d82523d6000602084013e610973565b606091505b50509050806109c45760405162461bcd60e51b815260206004820152601760248201527f4e474c50617065723a20726566756e64206661696c65640000000000000000006044820152606401610255565b505b600480549060006109d683610b3a565b9190505550336001600160a01b03167f2effa67f73049ce02614e3ff2638d73106bb38048b7ed44ca9b237a27cbcf8608484604051610a16929190610be2565b60405180910390a2505050565b60008060408385031215610a3657600080fd5b50508035926020909101359150565b600060208284031215610a5757600080fd5b5035919050565b600060208284031215610a7057600080fd5b81356001600160a01b0381168114610a8757600080fd5b9392505050565b6020808252601390820152722723a62830b832b91d103737ba1037bbb732b960691b604082015260600190565b818152604060208201526000610a8760408301600481526343454c4f60e01b602082015260400190565b634e487b7160e01b600052601160045260246000fd5b8082028115828204841417610b1257610b12610ae5565b92915050565b600060208284031215610b2a57600080fd5b81518015158114610a8757600080fd5b600060018201610b4c57610b4c610ae5565b5060010190565b828152606060208201526000610b7d60608301600481526318d554d160e21b602082015260400190565b90508260408301529392505050565b600060208284031215610b9e57600080fd5b5051919050565b818152604060208201526000610a8760408301600481526318d554d160e21b602082015260400190565b81810381811115610b1257610b12610ae5565b828152606060208201526000610b7d60608301600481526343454c4f60e01b60208201526040019056fea2646970667358221220c07b0d1cbbdcb9e46b87be6bb54fb479c8c3a4603f129d834e99cb20235267e164736f6c63430008140033",
  "linkReferences": {},
  "deployedLinkReferences": {}
}